:020000040000FA
:060000008A110A12052816
:100008000900442083160313061086100611861172
:10001800831203130614861006158611B830F200F1
:100028000B30F30036200610861406158611B830FA
:10003800F2000B30F30036200614861006118615E0
:10004800B830F2000B30F300362006108614061183
:100058008615B830F2000B30F30036200C2834280F
:1000680063003428F30A0430F100A530F000F00BE7
:100078003B28F10B3928F20B3728F30B37280800F7
:100088007030831603138F048F308F050F178F1668
:100098000F169F13831203131F108316031788016B
:1000A80089018312031788138713831203138501A9
:0A00B8008601870188018901080014
:04400E00D42FFF3F6D
:00000001FF
