:020000040000FA
:060000008A110A12052816
:10000800090029208316031306108312031306140C
:10001800E830F2000330F3001B200610E830F2004D
:100028000330F3001B200928192863001928F30A54
:100038000430F100A530F000F00B2028F10B1E2849
:10004800F20B1C28F30B1C280800703083160313CE
:100058008F048F308F050F178F160F169F1383127B
:1000680003131F10831603178801890183120317CE
:10007800881387138312031385018601870188017A
:0400880089010800E2
:04400E00D42FFF3F6D
:00000001FF
