:020000040000FA
:060000008A110A12052816
:100008000900E9209320831603138611861206102F
:10001800861006110611C83083120313A800A9011F
:1000280031206F200130A500A4016B21DE30F200E1
:100038000130F3003730F7000230F8000222DE30DA
:10004800AE000130AF008F21F130F2000330F30031
:1000580085200F282F2863002F28B301B4016820BA
:10006800A001AE212B08A2002208F500F6012808FD
:10007800F9002908FA00E72170184C28A001AE21E0
:100088002B08A2009030F2000130F30085203828B8
:10009800B301B4016120A501A4016B21CC30F200A9
:1000A8000130F3002530F7000230F8000222CC308E
:1000B800AE000130AF008F21080086218C21330863
:1000C800F2003408F3008528832189213308F200DF
:1000D8003408F300852808100130A30006210430F5
:1000E800F200F30185208030A30006210C30F500D2
:1000F8007D280530F000F00B7F280000F50B7D28E7
:100108000800F30A0430F100A530F000F00B8A284B
:10011800F10B8828F20B8628F30B86280800831633
:1001280003130810081188100A30F200F301831233
:10013800031385204A21A60803199E280810831650
:1001480003130812881208138813831203138810E4
:100158000F30F200F301852008168816081388135B
:10016800B528B6280815B828B92808110530F200AE
:10017800F30185200330B1000815C228C3280811EF
:100188008530F000F00BC628B10BC0280530F2000E
:10019800F30185200812881608138813D328D42859
:1001A8000815D628D72808112130F000F00BDA28D6
:1001B8002830A30006210630A30006210C30A30036
:1001C80006216F200C30A700080070308316031337
:1001D8008F048F308F050F178F160F169F138312FA
:1001E80003131F108316031788018901831203174D
:1001F80088138713831203138501860187018801F9
:10020800890108004A21A6080319062988108316BF
:100218000313081288120813881383120313081291
:10022800881208138813A31B8817231B0817A31AFF
:100238008816231A081620290815222923290811A7
:10024800252926290812881208138813A319881744
:1002580023190817A3188816231808163329081510
:10026800352936290811382939298813081388129D
:1002780008120818492910302302031849292308AD
:10028800073C031849292308A7000800A6012D11D7
:1002980008182D1588140530F5007D200810053044
:1002A800F5007D2008150530F5007D208316031321
:1002B800881783120313881B6329FF30A6000811CF
:1002C8001930F5007D2008102D19081408000810B1
:1002D8002508013C031874290230A5021430A4072C
:1002E8002508F5004030F900F62124087007B2000F
:1002F80080303204A30006210530F5007D28061061
:1003080086140800061086100800061586110800D5
:100318000611861108002E08840083132F188317EE
:100328000008AA00AA08031908000814B00101303F
:100338002A02031CAD29B00A30082E078400831353
:100348002F1883170008A30006212A083002031C6F
:100358009F290800831603139F1383160317880128
:10036800890183120313200AA100031483160317BB
:10037800880D890D83120313A10BBA299F131F1728
:100388001F119F111F129F1220181F15A0189F15CB
:1003980020191F16A0199F161F140230F5007D2082
:1003A8009F1400009F18D6291F1083160317880171
:1003B8008901831203131E08AB00831603139F13CE
:1003C800831203130800F00176087A02031C080060
:1003D8007A087602031CF4297908750203180800C4
:1003E800F0090800F00175087918F0070310F90CF6
:1003F8000310F50DF908031DF72908007208840099
:100408008313731883171E22F5008000F207152A3C
:10041800720884008313731883171E22F500F607E9
:10042800F207F508031908001E22840A8000F50B5C
:10043800182A080078088A007708F70A0319F80AC2
:1004480082001134503455345434543449344E34C1
:10045800473420344F3455345434203446344C34E3
:1004680041344D3445340634753472346D346F3448
:040478006D34333478
:04400E00D42FFF3F6D
:00000001FF
