:020000040000FA
:060000008A110A12052816
:1000080009008D20372083160313861283120313E9
:100018008616B02186120A281128630011280810B4
:100028000130A000AA200430F200F301292080301A
:10003800A000AA200C30F50021280530F000F00BB4
:1000480023280000F50B21280800F30A0430F100EA
:10005800A530F000F00B2E28F10B2C28F20B2A28E3
:10006800F30B2A28080083160313081008118810B8
:100078000A30F200F301831203132920EE20A308AB
:10008800031942280810831603130812881208134C
:1000980088138312031388100F30F200F30129200C
:1000A800081688160813881359285A2808155C2832
:1000B8005D2808110530F200F30129200330AB0058
:1000C80008156628672808118530F000F00B6A28A3
:1000D800AB0B64280530F200F301292008128816BA
:1000E800081388137728782808157A287B28081198
:1000F8002130F000F00B7E282830A000AA2006301E
:10010800A000AA200C30A000AA2013200C30A400C4
:1001180008007030831603138F048F308F050F1774
:100128008F160F169F13831203131F1083160317BE
:100138008801890183120317881387138312031315
:10014800850186018701880189010800EE20A3083E
:100158000319AA2888108316031308128812081393
:100168008813831203130812881208138813A01B1C
:100178008817201B0817A01A8816201A0816C428E2
:100188000815C628C7280811C928CA2808128812BD
:1001980008138813A019881720190817A01888169B
:1001A80020180816D7280815D928DA280811DC28B5
:1001B800DD2888130813881208120818ED28103053
:1001C80020020318ED282008073C0318ED28200812
:1001D800A4000800A3012711081827158814053062
:1001E800F500212008100530F500212008150530FC
:1001F800F500212083160313881783120313881B25
:100208000729FF30A30008111930F5002120081034
:1002180027190814080008102208013C0318182997
:100228000230A2021430A1072208F5004030F9007C
:10023800462121087007AC0080302C04A000AA20B9
:100248000530F5002128280884008313291883170E
:100258000008A500A508031908000814AA01013020
:100268002502031C4529AA0A2A08280784008313A3
:10027800291883170008A000AA2025082A02031CB1
:1002880037290800F00175087918F0070310F90CF0
:100298000310F50DF908031D4729080072088400AA
:1002A8008313731883176E21F5008000F207652900
:1002B800720884008313731883176E21F500F607FC
:1002C800F207F508031908006E21840A8000F50B6F
:1002D8006829080078088A007708F70A0319F80AD5
:1002E80082000B3427344E34693463346534203447
:1002F80063346F3463346B3427340D3420342D3435
:1003080059346F347534723420344D346F34743446
:100318006834653472340D34443461346D346E3469
:100328002034623472346F342C34203467346F34A0
:1003380074341234653476346534723479346F34F5
:100348006E34653420346C34613475346734683401
:1003580069346E3467342034A201A1010F21DD30E5
:10036800F2000130F3007530F7000130F800522137
:10037800DD30A8000130A90027210130A200A10129
:100388000F21DD30F2000130F3008130F700013039
:10039800F8005221DD30A8000130A9002721D03013
:1003A800F2000730F30029201320A201A1010F2138
:1003B800DD30F2000130F3008F30F7000130F80033
:1003C8005221DD30A8000130A90027210130A20008
:1003D800A1010F21DD30F2000130F3009D30F7005C
:1003E8000130F8005221DD30A8000130A900272192
:0C03F800D030F2000730F3002920132859
:04400E00D42FFF3F6D
:00000001FF
