:020000040000FA
:060000008A110A12052816
:1000080009003B208316031386110610861006117B
:1000180006110616861283120313061E1828A0015D
:10002800A1011F2086121C28A001A10126208616E6
:100038000F2863001D2858205E202008F2002108A0
:10004800F3002D285B2061202008F2002108F3002E
:100058002D28F30A0430F100A530F000F00B322807
:10006800F10B3028F20B2E28F30B2E2808007030E5
:10007800831603138F048F308F050F178F160F16F3
:100088009F13831203131F10831603178801890116
:1000980083120317881387138312031385018601BC
:1000A80087018801890108000610861408000614D3
:1000B8008610080006118615080006158611080026
:04400E00D42FFF3F6D
:00000001FF
