:020000040000FA
:060000008A110A12052816
:100008000900432083160313061086100611861173
:100018008312031366206F20E830F2000330F300E8
:10002800352063206C20E830F2000330F3003520DF
:1000380060206920E830F2000330F30035206320A7
:100048006920E830F2000330F300352060206C208E
:10005800E830F2000330F30035200C283328630021
:100068003328F30A0430F100A530F000F00B3A28E9
:10007800F10B3828F20B3628F30B362808007030BD
:10008800831603138F048F308F050F178F160F16E3
:100098009F13831203131F10831603178801890106
:1000A80083120317881387138312031385018601AC
:1000B80087018801890108000610861408000614C3
:1000C800861008000610861008000611861508001C
:0C00D800061586110800061186110800AC
:04400E00D42FFF3F6D
:00000001FF
