:020000040000FA
:060000008A110A12052816
:10000800090043208316031306138613061286126B
:10001800831203136320E830F2000330F300352025
:100028006020E830F2000330F30035206620E83025
:10003800F2000330F30035206320E830F20003308B
:10004800F30035206020E830F2000330F30035205B
:100058006620E830F2000330F30035200C286300F6
:100068003328F30A0430F100A530F000F00B3A28E9
:10007800F10B3828F20B3628F30B362808007030BD
:10008800831603138F048F308F050F178F160F16E3
:100098009F13831203131F10831603178801890106
:1000A80083120317881387138312031385018601AC
:1000B80087018801890108000613861708000617BA
:0A00C80086130800061386130800D3
:04400E00D42FFF3F6D
:00000001FF
