:020000040000FA
:060000008A110A12052816
:100008000900BA2064208316031386120330831272
:100018000313A000A8212A08B3000230A000A821D9
:100028002A08B400A001A8212A08B5004020A4018C
:10003800A3013C213508A6007321C83035020318F6
:1000480037280130A400A3013C21EA30F200013036
:10005800F3002B30F7000230F8000822EA30AD0038
:100068000130AE005421F430F2000130F300562084
:100078000A283E2863003E2808100130A200D72035
:100088000430F200F30156208030A200D7200C3053
:10009800F5004E280530F000F00B50280000F50B55
:1000A8004E280800F30A0430F100A530F000F00BE8
:1000B8005B28F10B5928F20B5728F30B5728080037
:1000C800831603130810081188100A30F200F30190
:1000D8008312031356201B21A50803196F28081043
:1000E8008316031308128812081388138312031344
:1000F80088100F30F200F3015620081688160813EE
:10010800881386288728081589288A280811053021
:10011800F200F30156200330B00008159328942804
:1001280008118530F000F00B9728B00B91280530A6
:10013800F200F30156200812881608138813A42821
:10014800A5280815A728A82808112130F000F00BC9
:10015800AB282830A200D7200630A200D7200C30C8
:10016800A200D72040200C30A80008007030831669
:1001780003138F048F308F050F178F160F169F13D9
:10018800831203131F108316031788018901831232
:1001980003178813871383120313850186018701C8
:1001A8008801890108001B21A5080319D728881090
:1001B8008316031308128812081388138312031373
:1001C8000812881208138813A21B8817221B081705
:1001D800A21A8816221A0816F1280815F328F428F6
:1001E8000811F628F7280812881208138813A2198C
:1001F800881722190817A218881622180816042921
:10020800081506290729081109290A298813081336
:100218008812081208181A291030220203181A29FD
:100228002208073C03181A292208A8000800A5017B
:100238002C1108182C1588140530F5004E200810CC
:100248000530F5004E2008150530F5004E208316C0
:100258000313881783120313881B3429FF30A50062
:1002680008111930F5004E2008102C190814080040
:1002780008102408013C031845290230A402143050
:10028800A3072408F5004030F900FC212308700773
:10029800B10080303104A200D7200530F5004E2887
:1002A8002D08840083132E1883170008A900A908B5
:1002B800031908000814AF0101302902031C722930
:1002C800AF0A2F082D07840083132E188317000800
:1002D800A200D72029082F02031C64290800A701BF
:1002E800081464302602031C86292608F5006430A9
:1002F800F900E8217508A7007008A6003030270724
:10030800A200D7202708F900F501E1217008B10003
:100318002608F5000A30F900E121F00931087004D7
:10032800B200321CA4292608F5000A30F900E82199
:100338007508A7007008A60030302707A200D7204C
:1003480030302607A200D728831603139F1383167D
:1003580003178801890183120313200AA1000314DB
:1003680083160317880D890D83120313A10BB42973
:100378009F131F171F119F111F129F1220181F155F
:10038800A0189F1520191F16A0199F161F140230B8
:10039800F5004E209F1400009F18D0291F108316C7
:1003A800031788018901831203131E08AA00831604
:1003B80003139F13831203130800F0010314790831
:1003C8007502031CF0090800F90803190800F00178
:1003D8000830F4000310F50DF00D7908F0027514DB
:1003E8000318F92975107908F007F40BEE290800AD
:1003F800F00175087918F0070310F90C0310F50DD2
:10040800F908031DFD290800720884008313731876
:1004180083172422F5008000F2071B2A7208840043
:100428008313731883172422F500F607F207F508DB
:10043800031908002422840A8000F50B1E2A0800EC
:1004480078088A007708F70A0319F80A8200053441
:0A04580046344C3441344D34453431
:04400E00D42FFF3F6D
:00000001FF
