:020000040000FA
:060000008A110A12052816
:1000080009005D2083160313861206108610061158
:100018008611831203138616E830F2000330F300CA
:100028004F2086120614E830F2000330F3004F2008
:100038000610E830F2000330F3004F208020E8304B
:10004800F2000330F3004F207D20E830F200033047
:10005800F3004F207A20E830F2000330F3004F20FD
:100068008020E830F2000330F3004F208620E8308B
:10007800F2000330F3004F208320E830F200033011
:10008800F3004F208920E830F2000330F3004F20BE
:100098000D2863004D28F30A0430F100A530F00064
:1000A800F00B5428F10B5228F20B5028F30B502870
:1000B80008007030831603138F048F308F050F17D5
:1000C8008F160F169F13831203131F10831603171F
:1000D8008801890183120317881387138312031376
:1000E80085018601870188018901080006108614A8
:1000F800080006148610080006108610080006116D
:1001080086150800061586110800061186110800D4
:04400E00D42FFF3F6D
:00000001FF
