:020000040000FA
:060000008A110A12052816
:1000080009005A208316031386120610861006115B
:100018008611831203138616E830F2000330F300CA
:100028004C208612E830F2000330F3004C207D208B
:10003800E830F2000330F3004C207A20E830F20078
:100048000330F3004C207720E830F2000330F3004F
:100058004C207D206430F200F3014C208620E830EB
:10006800F2000330F3004C208320E830F200033024
:10007800F3004C208020E830F2000330F3004C20DD
:1000880086206430F200F3014C200D2863004A28D2
:10009800F30A0430F100A530F000F00B5128F10B01
:1000A8004F28F20B4D28F30B4D28080070308316AB
:1000B80003138F048F308F050F178F160F169F139A
:1000C800831203131F1083160317880189018312F3
:1000D8000317881387138312031385018601870189
:1000E8008801890108000610861408000614861085
:1000F8000800061086100800061186150800061567
:0A0108008611080006118611080098
:04400E00D42FFF3F6D
:00000001FF
