:020000040000FA
:060000008A110A12052816
:100008000900242083160313861264308312031315
:10001800A000A1018430A2000330A30041200928D8
:1000280063001428F30A0430F100A530F000F00B47
:100038001B28F10B1928F20B1728F30B17280800B7
:100048007030831603138F048F308F050F178F16A8
:100058000F169F13831203131F10831603178801AB
:1000680089018312031788138713831203138501E9
:100078008601870188018901080086162008F20098
:100088002108F300162086122208F2002308F30044
:02009800162828
:04400E00D42FFF3F6D
:00000001FF
