:020000040000FA
:060000008A110A12052816
:1000080009003F2083160313861207108710071173
:100018008711831203138616E830F2000330F300C9
:10002800312086120714E830F2000330F300312043
:100038000710E830F2000330F30031205F20E83089
:10004800F2000330F30031205C20E830F200033086
:10005800F30031200D2863002F28F30A0430F10043
:10006800A530F000F00B3628F10B3428F20B3228BB
:10007800F30B322808007030831603138F048F3077
:100088008F050F178F160F169F13831203131F1058
:1000980083160317880189018312031788138713AE
:1000A80083120313850186018701880189010800ED
:0C00B800071487100800071087100800CC
:04400E00D42FFF3F6D
:00000001FF
