:020000040000FA
:060000008A110A12052816
:1000080009001D20831603138612831203133A2056
:10001800092863000D28F30A0430F100A530F00028
:10002800F00B1428F10B1228F20B1028F30B1028F0
:1000380008007030831603138F048F308F050F1755
:100048008F160F169F13831203131F10831603179F
:1000580088018901831203178813871383120313F6
:1000680085018601870188018901080086166430A8
:10007800F200F3010F2086128430F2000330F300FF
:020088000F283F
:04400E00D42FFF3F6D
:00000001FF
