:020000040000FA
:060000008A110A12052816
:10000800090056208316031386120610861006115F
:100018008611831203138616E830F2000330F300CA
:1000280048208612E830F2000330F30048208D2083
:10003800E830F2000330F30048208020E830F20076
:100048000330F30048207320E830F2000330F30057
:1000580048208D20E830F2000330F3004820992032
:10006800E830F2000330F30048209620E830F20030
:100078000330F30048209C20E830F2000330F300FE
:1000880048200D2863004628F30A0430F100A53003
:10009800F000F00B4D28F10B4B28F20B4928F30B1D
:1000A800492808007030831603138F048F308F059A
:1000B8000F178F160F169F13831203131F10831623
:1000C8000317880189018312031788138713831282
:1000D80003138501860187018801890108008316B9
:1000E80003130614831203130610831603138610D2
:1000F8008312031386140800831603130610831251
:10010800031306148316031386148312031386102D
:1001180008008316031306148614831203130610AB
:1001280086100800061186150800061586110800B5
:060138000611861108000B
:04400E00D42FFF3F6D
:00000001FF
