:020000040000FA
:060000008A110A12052816
:1000080009005C2083160313861207108710071156
:100018008711831203138616E830F2000330F300C9
:100028004E208612E830F2000330F3004E207F2085
:10003800E830F2000330F3004E207C20E830F20074
:100048000330F3004E207C20E830F2000330F30048
:100058004E207920E830F2000330F3004E207F2054
:10006800E830F2000330F3004E208520E830F2003B
:100078000330F3004E208220E830F2000330F30012
:100088004E208820E830F2000330F3004E200D287F
:1000980063004C28F30A0430F100A530F000F00B9F
:1000A8005328F10B5128F20B4F28F30B4F28080067
:1000B8007030831603138F048F308F050F178F1638
:1000C8000F169F13831203131F108316031788013B
:1000D8008901831203178813871383120313850179
:1000E8008601870188018901080007108714080024
:1000F80007148710080007108710080007118715D4
:0E01080008000715871108000711871108006D
:04400E00D42FFF3F6D
:00000001FF
