:020000040000FA
:060000008A110A12052816
:10000800090027208316031386128312031386160A
:10001800F430F2000130F300192086126430F20047
:10002800F3011920092863001728F30A0430F100A6
:10003800A530F000F00B1E28F10B1C28F20B1A2833
:10004800F30B1A2808007030831603138F048F30BF
:100058008F050F178F160F169F13831203131F1088
:1000680083160317880189018312031788138713DE
:0E0078008312031385018601870189010800A8
:04400E00D42FFF3F6D
:00000001FF
